:020000040000fa
:080000000002040000000000f2
:020000040000fa
:100400002f4c2400007f2400000188000000000021
:100410000c00070060d32a00110020001100070023
:10042000000020000000e000020032000000020096
:1004300000000000c2910200010000000040da004c
:100440000000fe004440a900c0c721000000e000f9
:100450000300320000002000a00188004440a800f2
:100460000000060091018800800078000000eb0089
:1004700015003700e280400032a0b4009101ba00bc
:10048000e280400032a0b4009102ba00e280400055
:1004900032a0b4000002eb00472bde00f507b200eb
:1004a000602ce10004003a000059eb008301e900f0
:1004b000fdff3e00040037006128e100010032002a
:1004c0000082eb00040007001101ba000200e00006
:1004d000e8ff3a00000006003159ba008301e90044
:1004e0000c0032002159ba008301e90008003200f3
:1004f0000400e00003003a00e280400032a0b400b3
:10050000f5ff370011d9ba008301e900faff3a007c
:100510008100e800e180400032a0b4000000060045
:100520001692040001000000ecd20400010000005b
:10053000faec040001000000643104000100000036
:10054000fa27040001000000422604000100000018
:1005500062260400010000000e28040001000000d3
:100560001a28040001000000ee260400010000002b
:100570004a22040001000000bc1c0400010000002d
:10058000c227040001000000646f040001000000a5
:10059000c06b040001000000d06d040001000000e9
:1005a000286a040001000000ae6804000100000099
:1005b0000a6c040001000000ea6c04000100000065
:1005c0007869040001000000b26e04000100000020
:1005d0001c7004000100000090db0400010000001a
:1005e0003edc0400010000002add040001000000e0
:1005f00090dd040001000000aadd040001000000fd
:10060000c2dd04000100000082de040001000000e1
:1006100042fb0400010000002679040001000000f4
:100620006e7e040001000000be7a0400010000009c
:10063000547f0400010000001cd3040001000000ee
:100640004c050400000000003200f8009101880011
:10065000023b88000008bb000500fc00510520009b
:10066000313b8800a10a2000313b880061e7a800e7
:1006700000000000000000003200f9000000060049
:100680000400a100010037000400a0003200f800bf
:100690009101880011002400013b8800f10f200027
:1006a0003208bb000400a700b20078000198bb002c
:1006b0008301e900faff3a00680151000400a70035
:1006c00068015100680050001208bb00e2ff3700cb
:1006d000f30f20003200f80091018800310024005f
:1006e000013b88000208bb000388bb00daff37002b
:1006f0003200f800003b8800d7ff370004003700c5
:100700000204e0000a0032000000e8008100e80076
:1007100010417800914f5100f9ff32000081eb0049
:1007200010407800914f500004003900020037005b
:100730000001eb00010037001200200002007800e9
:100740000000060080017800000178003140780048
:10075000005978000004e000fcff3a000300780034
:100760000000060080007800010037000000e8006b
:100770001004e000fdff3a000100500000000600f8
:100780008001eb0002003700817178008301e800ee
:10079000828f5100fcff3a0000000600889fbe00d7
:1007a0000004be00f02582000000e00001003200dd
:1007b000000001000800e00001003a00e825820086
:1007c0000800be0074010700000444001804e000a3
:1007d00004003a00004c2400e0258a000004eb00ed
:1007e000070037000800be007d010700000044003c
:1007f0001004e000010032000058eb00e0258a0000
:10080000080078004f04be00000006008001780058
:1008100000017800010037000201e8001204e00046
:10082000fdff3a00020037000201e8008100e80005
:1008300011407800004978000004e000faff3a0017
:100840000300780000000600ec874700889fbe0088
:100850008a9fbe008c9fbe008e1f7800f0b79f005d
:1008600081bf9f00820478000004780001003700f7
:100870000804e800184778000e00fb006a01070032
:100880000000e000faff3a00d0c2b300804f5700ea
:100890000500320000c0e900804f5700020032001e
:1008a00000477800010037000804e8000900e00074
:1008b00045003500e18f5400430032004002200023
:1008c000808f540040003c000900e0000e0034001e
:1008d000f08f54001a003a0000c3b300984f100084
:1008e00016003a009840900080c7b30080cf5000b7
:1008f0000300320080c5b30080cf50000f003a00e3
:100900000884e8000e003700a900200000c3b300ef
:10091000984f10000a003a009840900080c7b3003a
:1009200080cf5000040032008900200080c5b30051
:1009300080cf500002003a000884e800090120003e
:100940000805780000c3b300010037000a05e8007d
:100950009a4f1000fdff32008a0578006066b800eb
:100960000e0037001020240000425200c4ef9f0008
:100970006149b9000c00be009e0507004fea9700d0
:100980000401fb00cf91de008b05e800ccb79f008f
:10099000ddb79f0000064100818649001b00fb0077
:1009a0002901070080007800090178001020240048
:1009b0002c010700000278000000e000e9ff3a0087
:1009c0008b0f540006003a000fb897000000e000bb
:1009d00029003200ffb09700010878002600370098
:1009e0008a805500c01d240060c07c000000fb0010
:1009f00000805000160033004240a9000f003c0068
:100a00004fe997000200fb00cf80de000000560097
:100a100081805e00800f5600818f5e0007003900e4
:100a20006149b900a70507004fb19700dfb19700f2
:100a3000820f5000838f58000500320020022000f2
:100a400020248a000086eb008086eb00050037003a
:100a5000d0c2b300804f570002003a006006160073
:100a6000e0861e008fb997000300e000030032000b
:100a70008b097800010037006066b8000c00be00ea
:100a80004f0778004f06be004f05be004f04be0062
:100a9000cf00b10000000600881f78000204780033
:100aa00022000700080040004f0478000000060004
:100ab0000000fa00881f7800000478003fb9970012
:100ac000ea81570080007800c0542000f50007003c
:100ad000800078000000e000020035000040eb00dc
:100ae00000f47800010078004f0478000080fa00dc
:100af000000006008001eb0008003700e3427800a8
:100b000063c278008301e80084cf52000300320002
:100b10000080eb000400390010000500828f5100b6
:100b2000f6ff3a000000eb00000006008001eb0039
:100b30000200370061f079008301e800828f5100e4
:100b4000fcff3a0000000600881f78006021820048
:100b50000000e000010032000000010030218200ae
:100b60000000e0000100320000000100d00382001c
:100b70000000e0000100320000000100a00382003c
:100b80000000e0000100320000000100e04224000b
:100b90001004e00026003a0040218200512182002a
:100ba0000004eb00d260260093012000110507002d
:100bb000f2352f00e3c62300000041008180490088
:100bc0000804e800e80f5400f6ff3a0040218a00cc
:100bd00051218a00c8072400d2602600930120001a
:100be000402182005121820002050700f2352f00ca
:100bf000e3c62300000041008180490040218a00b3
:100c000051218a00009cbe00c00f2400800f5400b8
:100c1000f1ff3a00c0078200d1078200b0038a00ca
:100c2000c1038a0011c0b300e042240001487800eb
:100c3000d2602600930120004021820051218200d1
:100c4000ec040700f2352f00e3c62300000041004a
:100c50008180490040218a0051218a0062072400d6
:100c6000120178007f0161004211dd00c3072400fa
:100c7000030141001202be00b4038a00c5038a00ca
:100c80000089be00b0038200c10382004008de007c
:100c900000f0a1004f04780000000600881f7800d3
:100ca00000047800602182000000e00001003200b2
:100cb00000000100e04224000048eb0030218200e7
:100cc0000000e00001003200000001006140b800b7
:100cd00040218a0051218a004f047800000006005c
:100ce000040037000204e00001003a0000000500a3
:100cf0000000e80010417800814f5100f9ff3a00f0
:100d000000000600889fbe0081047800114478002e
:100d10000804e00009003a000c0037008001780068
:100d200009017800d24078000104e0000700320099
:100d3000d3cf1000fbff32000000e8008800fb006a
:100d4000e7ff07000000e000f4ff3a004f04be0098
:100d500000000600800178008002eb0001003700ef
:100d60008459780005035100828f52000900320037
:100d700065c278008502e8000404e000f8ff3a004c
:100d800083007800068141008058eb00828f50007c
:100d9000fdff3a0000000600000278000b0037005b
:100da00001017800924178000304e00002003a005b
:100db000040050000000060083cf52000200320001
:100dc0000201e800f7ff37000000e80090427800d9
:100dd0000504e000f2ff3a000400500000000600a5
:100de000000278000700370083cf52000a0032006b
:100df0000201e800924178000304e000faff3a00a3
:100e00000000e800904278000504e0000400320091
:100e100001017800f7ff37000400500000000600d1
:100e200004005000000006006900e10004003500e5
:100e30006d00e100030034000002b1000100320047
:100e40000000050010000500800078001104b100ca
:100e5000030035009101b10001003c000050a000ea
:100e6000000006008001eb00040037008301e80069
:100e700090cf1000040032000000e800828f510083
:100e8000faff3a000000eb00000006001024820088
:100e90000000e00001003200000001004048240092
:100ea000000006006200fa00889fbe008a9fbe0014
:100eb0000004be00020578008300780060f92f006e
:100ec0000f004000b000070088979f0099979f008f
:100ed0000000eb00a09f9f009a4578000b80fb006c
:100ee0000000ea00cf04de0050c2b30080cf5500fe
:100ef0000200320009047800010037000904e9000b
:100f00000800e0000b0034001f90970008017800f3
:100f10008a0078008f9197000300010090979f004e
:100f20000000e000930032002f989700000044007a
:100f3000a09f9f000905450050c2b30080cf550017
:100f4000040032000b04e000e3ff3a002f98970002
:100f5000890037000000eb00809f9f00f0979f0002
:100f6000e0979f00d0979f00c0979f00b0979f0089
:100f7000c09f9f0009003700403c240000805000c3
:100f800000004000813b2400e10078004f9897006a
:100f900001007000c09f9f000a05e8001a44780015
:100fa0008800fb00403c24004dff070080007800d3
:100fb0000000e000f0ff3a00a0c2b300804f5400f0
:100fc0000e003a00bf8897000180e900b08f9f00b3
:100fd00010007800b09f9f000000e00005003d0079
:100fe0000000ea00b09f9f004f9897000020a000eb
:100ff000c09f9f000a05e80010003700b19f9f00c6
:1010000003fd2f00f4ff2700080037003f989700ea
:10101000840f5000040032006a00b9000000410053
:1010200003004000b09f9f000a05e8001a01fb0082
:1010300003004100e90f5000f4ff3600e0c2b300a6
:101040009a4f1000040032000080eb00909f9f0038
:101050008a0478001c0037008a04e800a0c2b300ac
:10106000994f100007003a00bf8897000180e900ff
:10107000b08f9f0010007800909f9f008a84e80046
:10108000110037000000eb00909f9f0003fd2f0030
:10109000f4ff2700080037001f989700840f5000c6
:1010a000040032006a00b900000041000300400063
:1010b000909f9f008904e8001901fb000300410094
:1010c000e90f5000f4ff3600194478008800fb0057
:1010d0008044240002ff07000000e00002003a0004
:1010e00000447800010037008904e800a87f9f00d1
:1010f00080c6b300804f540004003a00994f14009a
:101100000a003a006640500006003700c0c6b3002f
:10111000804f540005003a00994f140003003a0034
:1011200065404000a07f9f008904e8000905e800b1
:10113000cbfb2f008f8545001901fb0060f92f00c4
:101140000f0040000084e8008b01780080007800e8
:1011500008007800110007000000e00005003a00d8
:101160008b007800080078004f0107000000e000c5
:1011700059ff3d000080eb004f05be004f04be004c
:101180000080fa00000006000200fa00f1bf9f0094
:10119000010878000080fa0000000600889fbe0069
:1011a0008a1f7800000478000102780082447800e9
:1011b00003057800e0c6b300804f5100d200320032
:1011c00015003c006b405000804f5100240032005d
:1011d0000a003c0070405000804f51000f01320067
:1011e00065404000804f51007400320050c2b3008f
:1011f000804f510020013a001c01370040c6b30067
:10120000804f51001b00320065404000804f51006c
:1012100019013a001700370030c7b300804f510062
:10122000fe00320007003c0064405000804f510037
:10123000620032000040e800804f51000e013a0089
:10124000e700370050c7b300804f51005b00320009
:1012500063404000804f510007013a0057003700bb
:101260009180e900010a780078009000917178007f
:1012700007013700a8609000c0c6b30080cf5000bf
:101280000a003a009400780064805000000a780058
:101290001000be004f89de00cf91de000002be00cc
:1012a00002037800820378001300370010c7b300f0
:1012b00080cf500003003200a0c6b30080cf5000a2
:1012c00006003a009400780068805000000a780018
:1012d0003002be002003be00070037001480e90082
:1012e000000a78001000780000027800cfa2de002b
:1012f0000503780086037800049cbe000694be00b7
:10130000a860900080c6b30080cf50000e0032006d
:1013100020c6b30080cf500005003a000400fb0057
:10132000cf80de0001017800820178000a003700da
:1013300040c7b30080cf5000030032006640400039
:1013400080cf500006003a0004007800cf80de0015
:101350000101780082017800009cbe000294be006a
:101360003800be002801be00e00f5000e08f58009a
:10137000e00f5900e08f590003003d007800900015
:10138000d1c2b3000a003700081090000018a30073
:101390000300320078009000b1c2b30004003700af
:1013a0000008a300530032007800900001c2b3008f
:1013b000017578000000e8004d003700a86090003b
:1013c000c0c6b30080cf500006003a0094007800f9
:1013d00064805000000a78001002be006033b8003c
:1013e0001300370010c7b30080cf50000300320055
:1013f000a0c6b30080cf500006003a0094007800e9
:1014000068805000000a78003002be002003be0051
:10141000070037001480e900000a78001000780007
:1014200000027800050020000600200007002000d0
:10143000049cbe000694be00a860900080c6b30065
:1014400080cf50000e00320020c6b30080cf500085
:1014500005003a000480fb0001002000020020008b
:10146000030020000a00370040c7b30080cf5000bf
:10147000030032006640400080cf500006003a0072
:10148000040078000100200002002000030020007a
:10149000009cbe000294be00081090000038a3001b
:1014a000140032003800be002801be00e00f5000da
:1014b000e08f5800e00f5900e08f59000d00320016
:1014c00080c7b30080cf54000300320080c5b30052
:1014d00080cf540007003a007800900001c3b300a9
:1014e000017578008000e80009f578000080e800c8
:1014f0007004980078009000000045006004980097
:101500008940780042003700a8609000c0c6b30050
:1015100080cf5000250032000a003c00644050009b
:1015200080cf50002800320000c0e80080cf50007b
:10153000140032006840500080cf500022003a0072
:101540000a00370040c7b30080cf50001e003200b1
:101550006640400080cf50001b00320069405000c0
:1015600080cf500018003a00060037001480e900d0
:10157000000a780010007800485c90000848780065
:10158000450037001480e900000a78001002780056
:1015900068089000cf80de000101780082017800a9
:1015a000009abe000292be003b0037001480e900a2
:1015b000000a78001001780068089000cf80de00f3
:1015c0000089be00340037001480e900000a78006a
:1015d00010007800680c9000080878002e00370092
:1015e0001180e9008008780010007800cf80de00cc
:1015f0000101780082017800009cbe000294be00c8
:1016000078009000000045006004980081c7b30096
:1016100008007800ee0007001f0037001480e90082
:10162000000a7800100078006004980058099000c3
:101630000200e00002003d004afc070009003700fc
:101640008000eb0007fe0700800078000000e0004b
:101650000300320068009000008050000100370055
:1016600058089000100c98000b003700780090008c
:101670000275780006003700780090008000450071
:101680000904e00001003a0059c2b300894878001b
:101690000000e800700498000000eb004f0578009f
:1016a0004f04be00000006000400fa00889fbe0040
:1016b0008a9fbe008c1f7800000478000106780025
:1016c00070089000f8009000010050008808900019
:1016d000010050009808900001005000a8089000f8
:1016e00001005000b808900001005000c8089000a8
:1016f000810550000002220090bf9f0000032300dc
:10170000a0bf9f00081090000028a30018003a0016
:101710000b00e000160034008b0478000905780007
:10172000e28f5400020036002a0020000200370039
:101730000900e0000b00340058009000c801900040
:101740000a017800ee805700030001005004980061
:101750000000e0009600320068089000000045009c
:10176000600c98008a8454004240a900ebff3c00c2
:10177000780190000200e0000b0034005800900057
:10178000c80190008c00780003000100500498000c
:101790000000e0008600320068089000f800900029
:1017a00001004000600c9800880c90000900e000e7
:1017b0001500340009057800e28f5400020036005d
:1017c0002a002000020037000900e0000b0034006e
:1017d00058009000c80190000a017800ec80570082
:1017e00003000100500498000000e0007000320087
:1017f0006808900000004500600c98008a8454003e
:101800004240a900ebff3c00180990000200e000f4
:101810000b003400e800900058009000c8019000d0
:1018200003000100500498000000e0006000320056
:10183000680890009808900001004000600c980033
:10184000a80c90000900e00015003400090578009c
:10185000e28f5400020036002a0020000200370008
:101860000900e0000b00340058009000c80190000f
:101870000a017800ec805700030001005004980032
:101880000000e0004a0032006808900000004500b7
:10189000600c98008a8454004240a900ebff3c0091
:1018a000380990000200e0000d003400e8009000cc
:1018b000180890008080400058009000c8019000f7
:1018c00003000100500498000000e00038003200de
:1018d00068089000b808900001004000600c980073
:1018e000c80c90000900e0001500340009057800dc
:1018f000e28f5400020036002a0020000200370068
:101900000900e0000b00340058009000c80190006e
:101910000a017800ec805700030001005004980091
:101920000000e0002200320068089000000045003e
:10193000600c98008a8454004240a900ebff3c00f0
:10194000081090000028a3001b0032000b00e000ec
:10195000190034008b04780009057800e28f5400e8
:10196000020036002a002000020037000900e000d3
:101970000b00340058009000c80190000a01780064
:10198000ee80570003000100500498000000e000c2
:10199000070032006808900000004500600c9800c5
:1019a0008a8454004240a90003003400eaff370053
:1019b0000080eb00010037000000eb004f067800cc
:1019c0004f05be004f04be000080fa000000060074
:1019d0002f03b000889fbe008a9fbe008c9fbe0070
:1019e0008e1f78000007780050332400c0b79f0096
:1019f00080c5b30080cf500008003200423224007e
:101a0000c2b79f007740400080cf500003003a00eb
:101a100083002000b3b79f000a00370080c7b300df
:101a200080cf500005003200a4002000b4b79f0012
:101a300080c5b30080cf500002003a0005012000ad
:101a4000b5b79f003e04be002e05be0040c6b300e1
:101a500080cf5000030032006540400080cf50002e
:101a60000b003a00e00f5400e08f5c00e00f5d00d7
:101a7000e08f5d0006003d006000b8006011b80016
:101a800008045000898458000a0559008b855900c4
:101a9000bfb39700e88f530003003200f08f53006c
:101aa00045003a00020037003600200001003700f0
:101ab00046002000e00f5400e08f5c00e00f5d0066
:101ac000e08f5d0005003a005e0890008101200073
:101ad000a1b79f000000e000080032003fb197006e
:101ae0000200e90008006000cfb197006340780071
:101af00090df9f0074012000a4b79f008602780049
:101b00008502e900050033008b05d1000a85d3006a
:101b10008984d3000884d300f9ff3700089fbe00f2
:101b20000a97be00afb397000700e90021fc2f0021
:101b30008f804000008240003fb197008202e900a0
:101b400012003700afb397008703e900a7b79f00e3
:101b500000806200cfb09700615278003e00be0066
:101b60002e01be00860378008703e90005003300dc
:101b70008381d1000281d3008180d3000080d30013
:101b8000f9ff3700009fbe000297be003e00be0076
:101b90002e01be00e00f5000e08f5800e00f59000a
:101ba000e08f5900d6003400afb397000700e00083
:101bb000e4ff3c00d2003700ae60900080c6b30066
:101bc00080cf50000b00320006003c000104e00012
:101bd000080032006640500080cf500073003a0089
:101be00004003700c0c6b30080cf50006f003a0039
:101bf00031003700080178000800e00005003a00d5
:101c00005e08900081012000a1b79f000000e00065
:101c100009003200bfb19700110009000381d8000c
:101c20008000fd004fb297006440780090df9f0075
:101c300075012000a5b79f00bfb3970011000900f0
:101c40000781d80080017800afb097000100e9005b
:101c500022fc2f000f014100000241000c00370060
:101c6000bfb29700110009008501d800000178007b
:101c7000afb397008703e900a7b79f000590b900ad
:101c800000805100cfb09700615278008201780047
:101c90000300e000030034002fb197000200e000d1
:101ca000efff3c0003007800cf80de0001017800e8
:101cb000820178003a0037000806be00e00f5400a9
:101cc000e08f5c0005003a005e0890008301200070
:101cd000a3b79f000000e000090032003fb2970068
:101ce0006121b9000c00be002d030700cfb29700a0
:101cf0006540780090df9f0077012000a7b79f0024
:101d00003fb297006121b9000c00be00ed00070052
:101d10000006be00afb297000500e90027fc2f00c7
:101d20008f8343008083430097b79f0011003700e3
:101d30003fb197006114b9000801be000c00be005d
:101d40001a0307000005be00afb197008301e90048
:101d5000a3b79f000801be00a600070000005600c0
:101d60001fb29700cfb297006552780094b79f00da
:101d70000a06be00e00f5600e08f5e00030034004c
:101d8000afb397000700e000e9ff3c004feade0038
:101d9000cfa2de000c00be000401780084017800b0
:101da000009fbe000297be0055003700e00f5400b0
:101db000e08f5c00e00f5d00e08f5d0005003a0001
:101dc0005e08900081012000a1b79f000000e000a4
:101dd0000d0032003fb1970002027800cfa2de0072
:101de00005037800860378000800be000a01be00e3
:101df000450107004fb297006440780090df9f00d4
:101e000075012000a5b79f003fb19700020278003e
:101e1000cfa2de0005037800860378000800be002c
:101e20000a01be0031010700009fbe000297be00fc
:101e3000afb197000300e90024fc2f000f0242001d
:101e40000006420020003700bfb29700050478006a
:101e5000cfc4de00090578008a0578000802be00bc
:101e60000a03be005fa89700efa897007fa997001c
:101e70008fb1970028010700d0b79f00e1b79f00fe
:101e8000f2b79f0083bf9f00afb397008703e900bd
:101e9000a7b79f000802be000a03be005b00070050
:101ea0005faa970000005200cfb2970065567800f5
:101eb0005fb09700efb097007fb197008fb99700a0
:101ec000009fbe000297be003e00be002e01be0075
:101ed000d0af9f00e1af9f00f2af9f0083b79f009c
:101ee000e00f5000e08f5800e00f5900e08f5900dc
:101ef00003003400afb097000100e000d2ff3c00c7
:101f00003fb19700e80f510013003a000e10900007
:101f10000038a30010003200afb19700f78f5100d6
:101f200006003e0024fc2f000f0242008300420006
:101f300000c3b300914f100007003200afb297000a
:101f40008502e900a5b79f0000c3b30027fc2f005e
:101f50008f83430080f37a00afb19700788111003e
:101f6000120f98006e00900024fc2f000f02420018
:101f700083004200edfa07001e0990005e08900001
:101f8000800f510006003d0002005000000f980035
:101f90000e1090000040a100001798000f003700bd
:101fa0000000e0000d003d000e1090007400600085
:101fb000f00f500009003a007e089000fe009000eb
:101fc000010050008e0890000100500002005000f7
:101fd0004240a90001003400000f98004f0778002c
:101fe0004f06be004f05be004f04be002f03b100d8
:101ff00000000600020ab900001bb9000200b80088
:10200000810042008100430000000600889fbe005e
:102010008a9fbe008c1f78000205be000004be002f
:102020000006eb00e00f5000e08f5800e00f590071
:10203000e08f590007003d006000b8006011b80053
:1020400008045000898458000a0559008b855900fe
:102050001c002000e00f5200e08f5a00e00f5b00f0
:10206000e08f5b0002003d000f0007000c00a200a3
:102070000800be000a01be005b0207000203be00aa
:102080000002be000c00e000010032000600070064
:102090000400be000601be004f0678004f05be00da
:1020a0004f04be00000006006000b8006011b800d8
:1020b00004025000858258000603590087835900a6
:1020c000000006006022b800060220000000d000d8
:1020d0008180d2000482d2008582d2000000a0005c
:1020e0000202520083825a000300310002024200c1
:1020f00083824a000000a1000603e900f3ff3a00d2
:1021000000000600881f7800000478005001be001f
:102110004000be00040040008580480006014900e0
:1021200087814900009cbe000294be000400e100cb
:102130000588e1000690e1000798e1000200310007
:10214000680044001008e8004f0478000000060012
:10215000f4874700889fbe008a9fbe008c9fbe0008
:102160008e1f78000205be000004be00d4b79f0099
:10217000e5b79f00f6b79f0087bf9f000000eb0008
:10218000c0b79f00b0b79f00a0b79f0090b79f0057
:1021900080b79f000d042000bfb097004fb097009c
:1021a000000140000000e0000f003d004f08de008d
:1021b00000007100c0b79f009e00070001003d00b5
:1021c00012002000a100070001003d0012002000c5
:1021d000a6000700b1000700b60007000f0040008e
:1021e000c8ff0700220037004f08de00000671001c
:1021f000ccb79f008f00070001003d0012002000b7
:102200009200070001003d00120020009700070027
:10221000a20007000fb297009fb297002fb397005c
:10222000bfb39700a90007000000520081805a0048
:1022300002015b0083815b0080b79f0091b79f0024
:10224000a2b79f00b3b79f000007eb009f000700f5
:102250000020e10001a8e10002b0e10003b8e100c4
:10226000010031001e0020000e005600c0b79f0084
:102270004fb297000400e000070035001000200076
:10228000010020006011b80008047000898470000b
:102290000a0571008b8571008d06e900beff3a00ca
:1022a0000400e00003003d00820007000f00400032
:1022b00094ff07004fa897000000e00004003a00d8
:1022c0000fb497009fb497002fb59700bfb5970044
:1022d000940007004f0778004f06be004f05be0070
:1022e0004f04be004f01b10000000600881f7800b7
:1022f00018002000881f780095ff07008f87e900ed
:102300004f04780000000600801feb0090ff0700dc
:102310008f87e90000000600889fbe008a9fbe00ec
:102320008c1f78006e00070007003d007300070057
:10233000e00f5b00e08f5b0007003d00320007000c
:102340000006eb00040037003400070002003d00e7
:102350002a0007001c00200072000700e3ff0700ae
:102360000203be000002be000c00e00001003200cb
:10237000220007000400be000601be004f067800e0
:102380004f05be004f04be0000000600889fbe003f
:102390008a9fbe008c1f78005100070005003d0099
:1023a00056000700e00f5b00e08f5b0006003d0079
:1023b000040037001900070003003d006000b8006a
:1023c0006011b8001000070056000700ceff07009c
:1023d0000203be000002be000c00e000010032005b
:1023e000060007000400be000601be004f0678008c
:1023f0004f05be004f04be00000006006000b8009c
:102400006011b800000037000402500085825800b7
:102410000603590087835900000006000006eb0000
:10242000e00f5200e08f5a00e00f5b00e08f5b008e
:10243000000006000180400090b79f000001eb0003
:102440008fb097000100e00000000600020070005d
:1024500090b79f000180400080b79f000001eb0013
:10246000ffa897000100e0000000060002007000d5
:1024700080b79f00018040006faa9700cf20de0048
:1024800001007000f0af9f00040242002500070029
:102490004f18de000002720000000600e4af9f004b
:1024a0000804440089844c000a054d008b854d00ca
:1024b000000006003fb29700cfb297005fb39700cd
:1024c000efb3970000fe2f00000006003fb097001a
:1024d000cfb097005fb19700efb197000000060002
:1024e0000205be000004be00e00f5000e08f58005f
:1024f000e00f5900e08f5900000006006000b800ae
:102500006011b80008045000898458000a05590079
:102510008b8559001c002000e00f5200e08f5a000c
:10252000000006000800be000a01be000000060010
:10253000889fbe008a9fbe008c1f78004c01070058
:102540005301330003866c006450e1002e0032001a
:102550006420e100330032006150e1002f003200be
:102560006120e1003100320085855500eb07b000a5
:10257000090020000804200005003700080444007a
:1025800089844c000a0031000603430087834b0016
:102590000001530081815b00f8ff33000203be009d
:1025a0000800a0000804440089844c00f6ff3900ac
:1025b000c639dd00830173000100320013002000e2
:1025c0008904d1000884d3000998a30005003200d3
:1025d0000800a7000300a0008904d1000884d300ec
:1025e0008b05e8008904d1000884d3000001eb00ca
:1025f0000281d2003601070001f0a1000cf0a70013
:1026000001f0a0002b0137006420e1002d01320011
:102610000801be000200be00f7ff37006120e100a4
:10262000280132006000b800f3ff370000002000ee
:1026300001f82700f0ff3700f4ff2f004a013700b0
:102640000001be00630107000470a70003f0a100b1
:1026500003f8a30013003a006509b100100032002e
:10266000090035006928e10002003500010028005a
:102670000000050000004000818048008502e9005c
:10268000fcff3a0000000600f88f4200050035000c
:102690008100d1000080d3008502e800fcff3a00f1
:1026a000000006008000eb0000000500889fbe00cf
:1026b0008a9fbe00010578000100e000040035009b
:1026c00008003c000000e000200032000500370058
:1026d00060001000e080180002003b0001f02c00b8
:1026e0001a0037000004be006011b8006b0920001a
:1026f0000982cf00020039000882cf000441b000f7
:10270000694252000e00320008003b0082817100d5
:10271000610164008904d1000884d3008b05e800be
:102720000442e800f9ff3a000500370008044400bd
:1027300089844c008b05e9000442e900fbff3a0064
:10274000e30007000af0a70001f0a0004f05be005b
:102750004f04be000000060003f0a200889fbe00e8
:102760008a9fbe008c1f7800c1000700c80033009c
:102770006450e1004f0032006420e100520032005a
:1027800003826c0007003b000905d0000306d0005f
:10279000820f54000c065d00020039000200320076
:1027a00089017800030678008582550004003d0009
:1027b0000003fd008103fd008502ea008b854200d5
:1027c000840f720002003b0060001000e0801800df
:1027d0006011b8000005eb007a28e1000a0039001a
:1027e00006007800c75ddd00f707b200878075003e
:1027f0002d003700828171000a01780061056000b8
:102800008180d1000080d3008502e900f9ff3b0000
:10281000060440008784480002003b006004140066
:10282000e0841c000988a300070032008a8171003f
:1028300082817100610164008904d1000884d300a1
:102840008b05e800170037000978a30013003a0051
:102850000b00e000130034008b05e900080444007d
:1028600089844c000a4474000978a3000d003a00e2
:102870000b00e000070034008b05e9000804440069
:1028800089844c0001003a000b0020000978a30065
:10289000f7ff32000001eb00020037008281710077
:1028a0000a0178008a0007000cf0a70001f0a000e0
:1028b000800037006420e10002003a00838f6c0042
:1028c000800033000801be000200be00790037001e
:1028d000889fbe008a9fbe008c1f7800640007009e
:1028e0006b00330003866c006450e100240032006a
:1028f0006420e100270032006150e1002200320034
:102900006120e100210032008b854200eb07b1001d
:102910000134b800003ab8000804420089844a0033
:10292000013ab8000030b8008880400009014a0030
:10293000040033000000400081804800020149008b
:102940008b05e900c909dd00830170000100320038
:1029500013002000c814de004814dd004709de0023
:102960001200b200c808de0008847000580007009a
:1029700001f0a1000cf0a70001f0a0004d0037000d
:102980006120e1004f0032000801be000200be00dd
:10299000f7ff37006150e100fcff3a0049003700c3
:1029a000c8fd07000400be0000000600839f680009
:1029b0000100e00002003d0060001000e08018000f
:1029c0000300e00002003d0060011100e0811900f9
:1029d000bcfd07004f00e00002003b00600010005b
:1029e000e080180000000600889fbe008a9fbe009d
:1029f0008c9fbe000404b8000506b8008904460098
:102a000060854e000606b8000a054600e0854e00c7
:102a10000706b8008b054600040eb800890446007e
:102a20000a854e00e0854d00050eb8000a054600f7
:102a30008b854e00060eb8008b0546000416b800c4
:102a40000a0546008b854e000516b8008b0546002a
:102a5000041eb8008b0546000800be000a01be0037
:102a60004f06be004f05be004f04be00000006002a
:102a70000004be00570007000003be000405be00ae
:102a80000200be0053000700844f750000000600de
:102a90000200be006450e100050036006420e10041
:102aa000020036000968a30001003a000800be00d9
:102ab0000160a0004f0678004f05be004f04be0025
:102ac00000000600f0ff2f00f1ff2700f9ff37009c
:102ad00081002000618055000b003d000b002000ac
:102ae00061fe2f000100e1001d00340082817100b1
:102af000610164008904d1000884d3000000e8006b
:102b0000faff3a00710020006100640003007000c9
:102b1000020060000900320061044400e0844c00bf
:102b20000988a500050032008b05e8006808e1006f
:102b300002003a008904d1000884d300f20f20007b
:102b40000258e10005003d00c75ddd00f907b20055
:102b50008980750008007800000006000bf8270047
:102b60008b00780000000500889fbe008a9fbe0091
:102b7000841f7800beff07004f007800110033006b
:102b8000f0ff2f00838f6c0006003b0004056500fa
:102b90000a00a7000800370009f0a6001000200076
:102ba00008003700820f5400838f5c000300390057
:102bb0001000200001003e000000200009f0a700e6
:102bc0000000ea004f05be004f04be000000e00018
:102bd00000000600c70ade00f107b200f50fb200e0
:102be00008003200e1cf4200020032000170a00074
:102bf00024000500810f7000010032000408050068
:102c000044000500810f700002003a001400050026
:102c10008502e9000000400081c04800fcff3b0045
:082c20000170a0002400050072
:020000040000fa
:020000040005f5
:0457f800eefa0000c5
:020000040000fa
:020000040005f5
:0457fc007f3e0000ec
:020000040000fa
:100008006ef0010098f00100c2f00100ecf0010070
:1000180016f101006ef001006ef001006ef00100b3
:100028006ef001006ef001006ef0010036f801007c
:100038006ef001006ef001006ef001006ef001003c
:100048006ef001006ef001006ef001003cf001005e
:100058006ef001007cd300006ef001006ef001002c
:100068006ef001006ef001006ef001006ef001000c
:10007800e60002006ef001006ef001006ef0010073
:100088006ef001006ef001006ef0010000d3010077
:10009800b2f5010040f101005cf001006ef00100d2
:1000a8006ef001006ef001006ef001006ef00100cc
:1000b8006ef001006ef001006ef001006ef00100bc
:1000c8006ef001006ef001006ef001006ef00100ac
:1000d8006ef001006ef001006ef001006ef001009c
:1000e8006ef001006ef001006ef001006ef001008c
:1000f8006ef0010068f1010090f101006ef001005e
:100108006ef001006ef001006ef001006ef001006b
:100118006ef001006ef001006ef001006ef001005b
:100128006ef001006ef001006ef001006ef001004b
:100138006ef001006ef001006ef001006ef001003b
:100148006ef001006ef001006ef001006ef001002b
:100158006ef001006ef001006ef001006ef001001b
:100168006ef001006ef0010062f001006ef0010017
:100178006ef001006ef001006ef001006ef00100fb
:1001880068f001006ef001006ef001006ef00100f1
:100198006ef001006ef001006ef001006ef00100db
:1001a8006ef001006ef001006ef001006ef00100cb
:1001b8006ef001006ef001006ef001006ef00100bb
:1001c8006ef001006ef001006ef001006ef00100ab
:1001d8006ef001006ef001006ef001006ef001009b
:1001e8006ef001006ef001006ef001006ef001008b
:0801f8006ef001006ef0010041
:020000040000fa
:100208006ef0010098f00100c2f00100ecf001006e
:1002180016f101006ef001006ef001006ef00100b1
:100228006ef001006ef001006ef0010036f801007a
:100238006ef001006ef001006ef001006ef001003a
:100248006ef001006ef001006ef001003cf001005c
:100258006ef001007cd300006ef001006ef001002a
:100268006ef001006ef001006ef001006ef001000a
:10027800e60002006ef001006ef001006ef0010071
:100288006ef001006ef001006ef0010000d3010075
:10029800b2f5010040f101005cf001006ef00100d0
:1002a8006ef001006ef001006ef001006ef00100ca
:1002b8006ef001006ef001006ef001006ef00100ba
:1002c8006ef001006ef001006ef001006ef00100aa
:1002d8006ef001006ef001006ef001006ef001009a
:1002e8006ef001006ef001006ef001006ef001008a
:1002f8006ef0010068f1010090f101006ef001005c
:100308006ef001006ef001006ef001006ef0010069
:100318006ef001006ef001006ef001006ef0010059
:100328006ef001006ef001006ef001006ef0010049
:100338006ef001006ef001006ef001006ef0010039
:100348006ef001006ef001006ef001006ef0010029
:100358006ef001006ef001006ef001006ef0010019
:100368006ef001006ef0010062f001006ef0010015
:100378006ef001006ef001006ef001006ef00100f9
:1003880068f001006ef001006ef001006ef00100ef
:100398006ef001006ef001006ef001006ef00100d9
:1003a8006ef001006ef001006ef001006ef00100c9
:1003b8006ef001006ef001006ef001006ef00100b9
:1003c8006ef001006ef001006ef001006ef00100a9
:1003d8006ef001006ef001006ef001006ef0010099
:1003e8006ef001006ef001006ef001006ef0010089
:0803f8006ef001006ef001003f
:020000040000fa
:102c28004e5500004c4c000000570000465f000065
:102c38004a4f0000494e00005f460000414900002d
:102c48004c5500005245000000570000465f000048
:102c58004155000054480000454e0000544900000a
:102c680043410000544900004f4e00005f460000f9
:102c7800414900004c550000524500000057000033
:102c8800465f000041530000534f000043490000d5
:102c980041540000494f00004e5f000046410000cb
:102ca800494c0000555200004500000057460000fe
:102cb8005f570000455000005f480000414e00008b
:102cc80044530000484100004b4500005f460000a7
:102cd800414900004c5500005245000000570000d3
:102ce800465f0000505300004b5f00004341000066
:102cf8004c430000554c000041540000494f00006f
:102d08004e5f000046410000494c0000555200004b
:102d180045000000574600005f500000534b00007c
:102d28005f480000414e0000445300004841000045
:102d38004b4500005f460000414900004c5500002b
:102d48005245000000570000465f00004144000063
:102d5800484f0000435f00004a4f0000494e000002
:102d68005f460000414900004c55000052450000f4
:102d780000570000465f000053450000435500001f
:102d880052490000545900005f4d000049530000ab
:102d98004d41000054430000485f000046410000d8
:102da800494c0000555200004500000057460000fd
:102db8005f4e00004f5f000053550000495400006b
:102dc800414200004c4500005f410000505f000098
:102dd800464f0000554e0000445f00004641000089
:102de800494c0000555200004500000057460000bd
:102df8005f52000045540000525900005f46000031
:102e08004f52000045560000455200005f4e00003a
:102e18004f5400005f53000055500000504f000011
:102e280052540000454400005f460000414900003c
:102e38004c5500005245000000570000465f000056
:102e48004c4900004e4b00005f4c00004f530000ff
:102e58005400000000570000465f00005253000075
:102e68004e5f00004d49000058450000445f0000d7
:102e78004d4f0000444500005f4e00004f540000d5
:102e88005f53000055500000504f0000525400009e
:102e98004544000000570000465f0000524500000e
:102ea800435600005f4400004541000055540000af
:102eb80048000000574600005f52000045430000ec
:102ec800565f00004449000053410000535300007e
:102ed8004f43000000570000465f000057500000b5
:102ee800535f000046410000494c00005552000065
:102ef80045000000574600005f50000032500000b7
:102f08005f460000414900004c5500005245000052
:102f180000570000465f00004c4900004e4b00007f
:102f28005f4400004f5700004e000000417300004e
:102f3800736f00006369000061740000696f00002e
:102f48006e20000046610000696c00007572000088
:102f580065000000574600005f4200004541000040
:102f6800434f00004e5f0000544900004d450000eb
:102f78004f55000054000000574600005f44000011
:102f88004541000055540000485f000052450000cc
:102f98004345000049560000454400000057000022
:102fa800465f0000444900005341000053530000ad
:102fb8004f43000049410000544500005f520000a3
:102fc8004543000045490000564500004400000004
:102fd800574600005f5400004b490000505f000056
:102fe8004d490000435f000046410000494c000085
:102ff8005552000045000000574600005f5500008c
:103008004e53000050450000434900004649000067
:103018004544000000570000465f00005052000081
:10302800455600005f41000055540000485f00000d
:103038004e4f0000545f0000564100004c4900000c
:1030480044000000574600005f440000454100006e
:1030580055540000485f00004c45000041560000f0
:10306800494e000047000000574600005f4400003a
:103078004953000041530000534f0000435f0000d4
:1030880044550000455f0000544f00005f490000b0
:103098004e410000435400004956000049540000c6
:1030a80059000000574600005f44000049530000e3
:1030b80041530000534f0000435f0000415000009f
:1030c8005f420000555300005900000057460000b9
:1030d8005f4300004c41000053530000325f000082
:1030e80046520000414d0000455f00004652000076
:1030f8004f4d00005f4e00004f4e0000415500004c
:10310800544800005f53000054410000005700007d
:10311800465f0000434c0000415300005333000059
:103128005f460000524100004d4500005f46000028
:10313800524f00004d5f00004e4f00004e4100000e
:10314800535300004f4300005f53000054410000f8
:1031580000570000465f000044490000534100004a
:10316800535300004f4300005f53000054410000d8
:103178005f480000415300005f4c000045460000d6
:1031880054000000574600005f53000054410000ff
:103198005f520000455100005f410000535300009a
:1031a8004f4300005f57000049540000484f00009b
:1031b800555400005f4100005554000048000000cd
:1031c800574600005f4900004e560000414c000081
:1031d800494400005f4900004500000057460000d0
:1031e8005f4d0000494300005f4600004149000070
:1031f8004c5500005245000000570000465f000093
:1032080034570000415900005f480000414e00005b
:1032180044530000484100004b4500005f54000043
:10322800494d0000454f000055540000005700006c
:10323800465f0000475200004f550000505f0000f5
:103248004b450000595f0000484100004e44000013
:1032580053480000414b0000455f000054490000fe
:103268004d4500004f55000054000000574600002f
:103278005f490000455f00004449000046460000e1
:1032880045520000454e000054000000574600001b
:103298005f4900004e560000414c000049440000c0
:1032a8005f470000524f0000555000005f43000088
:1032b80049500000484500005200000057460000f1
:1032c8005f4900004e560000414c00004944000090
:1032d8005f50000041490000525700004953000068
:1032e800455f000043490000504800004552000077
:1032f80000570000465f0000494e0000564100009c
:103308004c490000445f0000414b00004d50000054
:1033180000570000465f0000554e0000535500005e
:10332800505000005f520000534e00005f560000ee
:1033380045520000534900004f4e0000005700005e
:10334800465f0000494e0000564100004c4900000d
:10335800445f0000525300004e5f000049450000e2
:103368005f4300004150000000570000465f000026
:103378004945000045450000383000003231000062
:10338800585f000046410000494c000045440000d9
:1033980000570000465f0000434900005048000005
:1033a800455200005f530000554900005445000095
:1033b8005f520000454a00004543000054450000a4
:1033c80044000000574600005f5500004e530000bf
:1033d80050450000434900004649000045440000ac
:1033e8005f460000414900004c550000524500006e
:1033f80000570000465f00004341000050530000a2
:103408005f5500004e53000055500000504f00001b
:10341800525400004544000000570000465f000079
:103428005245000041530000534f0000435f000025
:103438004e4f00005f410000535300004f4300000f
:1034480000570000465f000041530000534f000042
:10345800435f0000444500004e4900004544000019
:103468005f5500004e530000504500004300000027
:10347800574600005f4e00004f5400005f530000a5
:1034880055500000504f00005254000045440000c1
:103498005f41000055540000485f0000414c0000a7
:1034a80047000000574600005f5500004e4b0000e3
:1034b8004e4f0000574e00005f4100005554000079
:1034c800485f000054520000414e00005341000084
:1034d80043540000494f00004e00000057460000ca
:1034e8005f430000484100004c4c0000454e00007e
:1034f800474500005f460000414900004c000000bd
:10350800574600005f41000055540000485f000026
:10351800544900004d4500004f550000540000007c
:10352800574600005f410000505f0000554e000004
:10353800414200004c4500005f5400004f5f00000e
:10354800484100004e4400004c4500005f4e00001a
:10355800455700005f530000544100000057000029
:10356800465f000041530000534f0000435f0000d6
:10357800444500004e490000454400005f520000e9
:10358800415400004553000000570000465f00000a
:1035980041530000534f0000435f000044450000c2
:1035a8004e490000454400005f4e00004f530000a4
:1035b800484f00005254000050520000454100009e
:1035c8004d4200004c45000000570000465f0000d7
:1035d80041530000534f0000435f00004445000082
:1035e8004e490000454400005f4e00004f50000067
:1035f8004243000043000000574600005f410000be
:10360800535300004f4300005f440000454e000044
:1036180049450000445f00004e4f0000414700004c
:10362800494c00004954000059000000574600006a
:103638005f410000535300004f4300005f44000007
:10364800454e000049450000445f00004e4f000011
:10365800534800004f52000054540000494d0000e8
:1036680045000000574600005f410000535300002a
:103678004f4300005f440000454e000049450000ec
:10368800445f00004e4f00004453000053530000b5
:103698004f460000444d000000570000465f000000
:1036a8004e4f0000545f0000564100004c49000096
:1036b800445f00004945000000570000465f0000d5
:1036c8004e4f0000545f0000564100004c49000076
:1036d800445f0000475200004f550000504300006f
:1036e80049500000484500005200000057460000bd
:1036f8005f4e00004f5400005f560000414c000030
:10370800494400005f500000414900005257000042
:1037180049530000455f000043490000504800003d
:103728004552000000570000465f00004e4f000061
:10373800545f0000564100004c490000445f0000ff
:10374800414b00004d50000000570000465f00004c
:10375800554e000053550000505000004f520000d5
:1037680054450000445f0000525300004e5f0000c3
:103778005645000052530000494f00004e0000001b
:10378800574600005f540000494d0000454f0000b7
:1037980055540000004e00004f4e00004500000048
:1037a80045410000504f00004c5f0000535400009a
:1037b800415200005400000045410000505f0000e5
:1037c80052450000515f000049440000454e00008a
:1037d80054490000545900000045000041500000c1
:1037e8005f520000535000005f490000444500004c
:1037f8004e540000495400005900000045410000a3
:10380800505f000057500000535f00005354000001
:10381800415200005400000045410000505f000084
:1038280052530000505f00004d3100000045000079
:10383800415000005f520000455100005f4d0000fc
:103848003200000045410000505f00005253000064
:10385800505f00004d33000000450000415000005b
:103868005f520000455100005f4d00003400000029
:1038780045410000505f000052530000505f0000b7
:103888004d35000000450000415000005f52000027
:10389800455100005f4d0000360000004541000022
:1038a800505f000052530000505f00004d37000089
:1038b80000450000415000005f52000045510000e3
:1038c8005f4d00003800000045410000505f0000d7
:1038d80052530000505f0000444f00004e45000066
:1038e80000450000415000005f46000041490000cb
:1038f8004c55000052450000004e00004f450000a6
:103908005252000000530000455300005349000084
:103918004f4e00005f4f000056450000524c00001b
:10392800415000005045000044000000444500009c
:103938004352000059500000545f000043520000f9
:10394800435f000046410000494c0000555200000a
:103958004500000032340000475f00004e4f000071
:10396800545f000053550000505000004f520000b3
:103978005445000044000000524500005452000025
:10398800595f000046410000494c000055520000b4
:1039980045000000494e0000564100004c49000017
:1039a800445f00004d5300004700000041550000ef
:1039b800544800005f460000414900004c55000093
:1039c8005245000000410000535300004f430000df
:1039d8005f460000414900004c5500005245000078
:1039e800004d0000534700005f540000494d00009f
:1039f800454f000055540000005300004553000097
:103a0800534900004f4e00005f540000494d00002c
:103a1800454f000055540000004400004556000082
:103a28005041000053530000574400005f4100001c
:103a380055540000485f000046410000494c000012
:103a480055520000450000004e4f00005f43000043
:103a58004f4e00004e5f0000544f000052450000da
:103a6800470000004d5500004c540000495f00001d
:103a780050420000435f00004445000054450000e8
:103a8800435400004544000000440000455600002f
:103a98005f420000555300005900000053450000e4
:103aa80054550000505f00004c4f0000434b00008d
:103ab8004544000000570000464400005f530000e2
:103ac80055430000434500005353000000570000d1
:103ad800464400005f4900004e4600004f5f00006a
:103ae8004355000052520000454e0000544c00005f
:103af800595f0000554e0000415600004149000042
:103b08004c410000424c00004500000057460000b0
:103b1800445f0000494e0000434f00004d50000034
:103b280041540000494200004c4500005f5000002d
:103b380041520000414d000053000000574600006c
:103b4800445f00004c4900004d490000545f0000ec
:103b58005245000041430000484500004400000071
:103b680057460000445f0000494e000056410000df
:103b78004c490000445f00005041000052410000e1
:103b88004d53000000570000464400005f550000f8
:103b98004e410000424c0000455f0000544f0000b9
:103ba8005f410000434300004f4d00004d4f0000af
:103bb80044410000544500000057000046440000fe
:103bc8005f50000052450000565f00005052000050
:103bd8004f5400004f4300004f4c00005f45000069
:103be800525200004f5200000057000046440000a7
:103bf8005f4e00004f5f0000434f00004d4d000036
:103c08004f4e00005f430000484100004e4e000048
:103c1800454c00005300000057460000445f000078
:103c2800554e00004b4e00004f5700004e5f0000fd
:103c3800475200004f550000500000005746000052
:103c4800445f0000494e0000434f00004d50000003
:103c580041540000494200004c4500005f500000fc
:103c6800524f0000565f00004d45000054480000c8
:103c78004f44000000570000464400005f52000017
:103c8800454a00004543000054450000445f0000d9
:103c9800425900005f5500005345000052000000e3
:103ca80057460000445f00004e4f00005f4d000083
:103cb800454d000000570000464400005f490000e1
:103cc8004e560000414c0000494400005f4100008e
:103cd80043540000494f00004e00000057460000c2
:103ce800445f0000545800005f460000414900004e
:103cf8004c550000524500000057000046440000a3
:103d08005f540000494d0000455f00004f5500001a
:103d18005400000050320000505300005449000085
:103d2800646c000065000000503200005053000031
:103d380054530000636100006e0000005032000020
:103d480050530000544c0000697300007465000073
:103d58006e0000005032000050530000544600002e
:103d6800696e0000640000005032000050530000eb
:103d7800545300007461000072740000466f000024
:103d8800726d000061740000696f00006e00000031
:103d98005032000050530000544700004f4e0000be
:103da800656700006f52000065710000446f0000f5
:103db8006e650000005000003250000053540000af
:103dc800474f000057610000697400004e6500000d
:103dd800676f000052650000714400006f6e0000bc
:103de8006500000050320000505300005457000096
:103df80061690000744600006f7200006d61000088
:103e0800746900006f6e0000446f00006e6500006a
:103e1800005000003250000053540000496e00006a
:103e28007669000074650000005000003250000000
:103e380053540000507200006f7600006973000050
:103e4800696f00006e0000005032000050530000ff
:103e5800544300006c690000656e000074000000a7
:103e68004d610000696e0000446500006d6f000040
:103e78002e63000000570000465f0000436f0000fb
:103e88006e660000696700002e630000005700009e
:103e9800465f0000456900006e7400002e63000054
:103ea80000570000465f000053700000692e0000b4
:103eb80063000000574600004d610000635f00008a
:103ec80032340000472e000063000000574600000f
:103ed80050610000726100006d4d000073670000c2
:103ee8005f320000344700002e63000000570000d6
:103ef800464300006f6e00006e65000063740000aa
:103f0800696f00006e500000726f00006669000063
:103f18006c6500002e630000005700004643000057
:103f28006f6e00006e65000063740000696f00002a
:103f38006e4100006c6700006f7200006974000039
:103f4800686d00002e630000005700004643000023
:103f58006f6e00006e65000063740000696f0000fa
:103f68006e4d0000616e0000616700006572000020
:103f78002e630000005700004644000072690000ec
:103f880076650000724300006f6d00005f3200002c
:103f9800344700002e630000005700004649000027
:103fa8006e690000742e0000630000005746000090
:103fb80044720000697600006572000052610000da
:103fc800775f000032340000472e000063000000d5
:103fd800574600004d6700006d7400004d730000e7
:103fe800675f000032340000472e000063000000c5
:103ff800574600004d6700006d7400004d730000c7
:104008006754000065730000742e00006300000010
:104018005746000054780000506f00007765000094
:10402800722e00006300000057460000506f000029
:10403800776500007253000061760000652e00006d
:10404800630000005746000045760000656e0000da
:1040580074480000616e0000646c00006572000026
:104068002e63000000570000465300006361000003
:104078006e2e0000630000005746000044650000f3
:10408800627500006753000074720000696e0000da
:10409800677300002e63000000490000706500008f
:1040a8007266000041700000702e0000630000007e
:1040b80057460000486f0000737400004272000009
:1040c80069640000676500002e6300000057000067
:1040d800465f0000697000006572000066430000da
:1040e8006c690000656e0000742e0000630000001b
:1040f800574600005f6900007065000072660000a6
:104108005365000072760000657200002e6300009f
:1041180000570000465f00006970000065720000eb
:10412800664300006f6d00006d6f00006e2e00008a
:1041380063000000096200007373000069640000f6
:104148003a20000020200000200000002530000058
:10415800325800003a0000002530000032580000b4
:104168000d0a00000009000063680000616e00008d
:104178006e6500006c3a0000202000000025000059
:10418800640d00000a00000045760000656e00001e
:10419800743a0000204300006f6e00006e65000056
:1041a80063740000696f00006e2000005465000011
:1041b8006d7000006f72000061720000696c000091
:1041c800792000004c6f000073740000202000006c
:1041d8002d2d000020650000766500006e7400003b
:1041e800496e0000666f0000203d0000205200006c
:1041f80065630000656900007665000064200000c2
:10420800646500006175000074680000203a0000d1
:104218002000000045760000656e0000743a00003a
:10422800204300006f6e00006e650000637400009c
:10423800696f00006e200000546500006d7000007a
:104248006f72000061720000696c00007920000044
:104258004c6f000073740000202000002d2d00001a
:1042680020650000766500006e740000496e00004d
:10427800666f0000203d00002052000065630000ca
:10428800656900007665000064200000646900002c
:1042980073610000737300006f630000203a000030
:1042a8002000000045760000656e0000743a0000aa
:1042b800204300006f6e00006e650000637400000c
:1042c800696f00006e200000546500006d700000ea
:1042d8006f72000061720000696c000079200000b4
:1042e8004c6f000073740000202000002d2d00008a
:1042f80020650000766500006e740000496e0000bd
:10430800666f0000203d00002000000025640000ca
:104318002c200000000d00000a0000004576000077
:10432800656e0000743a0000204300006f6e0000c4
:104338006e65000063740000696f00006e20000065
:1043480046610000696c000065640000202d0000d3
:1043580020000000203a0000200000004576000000
:10436800656e0000743a0000204300006f6e000084
:104378006e65000063740000696f00006e20000025
:1043880050650000726d0000616e0000656e0000ef
:10439800746c0000792000004c6f000073740000fa
:1043a800202000002d2000005265000063650000f9
:1043b8006976000065640000206400006561000003
:1043c80075740000682000003a20000000450000d5
:1043d800766500006e7400003a200000436f00000c
:1043e8006e6e000065630000746900006f6e000067
:1043f80020500000657200006d6100006e650000cd
:104408006e7400006c790000204c00006f7300008f
:1044180074200000202d0000205200006563000079
:10442800656900007665000064200000646900008a
:1044380073610000737300006f630000203a00008e
:104448002000000045760000656e0000743a000008
:10445800204300006f6e00006e650000637400006a
:10446800696f00006e20000050650000726d00004a
:10447800616e0000656e0000746c00007920000019
:104488004c6f000073740000202000002d200000f5
:10449800000d00000a57000069460000692000006e
:1044a800636f00006e6e00006563000074690000b1
:1044b8006f6e0000207300006574000074690000ce
:1044c8006e670000733a00000d0a000000530000f8
:1044d80053490000443a000020200000202000003a
:1044e80020200000202000002020000020200000c4
:1044f800002800006e6f00006e65000029000000b3
:104508004e650000747700006f7200006b20000099
:1045180054790000706500003a2000002020000057
:104528002000000041640000486f0000630d000097
:104538000a00000057690000466900002044000096
:104548006972000065630000740d00000a00000035
:10455800536f000066740000204100006363000090
:104568006573000073200000506f0000696e000042
:10457800740d00000a000000496e00006672000019
:1045880061730000747200007563000074750000a8
:10459800726500002028000075730000696e000035
:1045a800672000005750000053200000507500009d
:1045b800736800002042000075740000746f0000ea
:1045c8006e2900000d0a0000004900006e66000018
:1045d800726100007374000072750000637400005b
:1045e80075720000652000002875000073690000de
:1045f8006e67000020570000505300002050000054
:10460800696e0000290d00000a000000496e0000d4
:104618006672000061730000747200007563000028
:1046280074750000726500000d0a00000043000068
:10463800686100006e6e0000656c0000204c000090
:1046480069730000743a0000202000002020000058
:1046580000250000640000002c200000004100003c
:104668006c6c000020630000686100006e6e000042
:10467800656c000073200000696e00002064000073
:104688006f6d0000616900006e0d00000a000000f7
:104698004d410000433a0000202000002020000087
:1046a8002020000020200000202000002020000002
:1046b80020000000253000003258000020000000d3
:1046c800536500006375000072690000747900008a
:1046d8003a200000202000002020000020200000b8
:1046e800200000004f700000656e00000d0a0000f9
:1046f8000057000050410000207700006974000056
:10470800682000006b650000790d00000a000000b9
:104718005750000041320000207700006974000003
:10472800682000006b650000790d00000a00000099
:1047380057500000412000007769000074680000ad
:104748002070000061730000732000007068000092
:1047580072610000736500000d0a00000057000038
:1047680050410000322000007769000074680000a2
:104778002070000061730000732000007068000062
:1047880072610000736500000d0a00000057000008
:104798005041000020770000697400006820000084
:1047a8006b650000792c0000206100007574000022
:1047b8006f2d0000736500006c65000063740000d5
:1047c8000d0a00000057000050410000207700004b
:1047d80069740000682000007061000073730000b5
:1047e800207000006872000061730000652c0000f2
:1047f80020610000757400006f2d000073650000d3
:104808006c650000637400000d0a0000005700008a
:1048180050530000207000007573000068200000ed
:1048280062750000747400006f6e0000206d000057
:1048380065740000686f0000640d00000a00000045
:104848005750000053200000504900004e2000003f
:104858006d650000746800006f6400000d0a0000b8
:10486800005700005041000032200000456e000053
:1048780074650000727000007269000073650000c2
:104888000d0a0000005700004550000034300000b9
:104898002c20000000570000455000003130000077
:1048a800342c000020000000574500005020000074
:1048b8004b65000079200000496e00006465000027
:1048c800783a000020200000200000005746000031
:1048d8002041000053530000455200005449000095
:1048e8004f4e0000206100007420000000250000e9
:1048f80073200000200000004c6900006e65000075
:10490800204e0000756d00006265000072200000f6
:104918003d200000004d00005246000032340000e7
:10492800472000006d6f0000647500006c65000092
:104938002041000053530000455200005445000038
:10494800442000002d2d000020610000737300003a
:1049580065720000744900006e6600006f20000058
:104968003d200000004d00003a250000642c0000a6
:10497800204900003a25000064000000214400009e
:1049880045460000000d00000a0000007478000091
:1049980074000000687400006d0000006874000076
:1049a8006d6c00000063000067690000007800007b
:1049b8006d6c000000630000737300000067000066
:1049c80069660000007000006e670000006a000061
:1049d80070670000006300006c6100000077000051
:1049e80061760000006a0000736f00006e0000002e
:1049f8000000000000000000caa40000cea40000cf
:104a0800d2a40000d7a40000dba40000dfa40000ab
:104a1800e3a40000e7a40000eba40000efa400005a
:104a2800f3a40000f7a40000fca4000074650000d3
:104a3800787400002f7000006c610000696e00003f
:104a48000074000065780000742f0000687400008e
:104a58006d6c00000074000065780000742f000081
:104a6800786d00006c000000746500007874000028
:104a78002f63000073730000006900006d6100007f
:104a8800676500002f670000696600000069000084
:104a98006d610000676500002f7000006e67000000
:104aa800006900006d610000676500002f6a000062
:104ab800706500006700000061700000706c000005
:104ac8006963000061740000696f00006e2f0000c8
:104ad8006a610000766100002d7600006d0000001c
:104ae80061750000646900006f2f0000782d0000d8
:104af80077610000766500000061000070700000ba
:104b08006c69000063610000746900006f6e00004a
:104b18002f6a0000736f00006e00000000000000a4
:104b28001aa5000025a5000025a5000025a5000060
:104b38002fa5000038a5000041a500004ba50000e6
:104b480055a5000060a5000074a5000081a500001f
:104b580092a5000048540000545000002f31000076
:104b68002e3100002032000030300000204f0000bd
:104b78004b0d00000a4300006f6e00006e650000d8
:104b880063740000696f00006e3a00002063000043
:104b98006c6f0000736500000d0a000000480000fb
:104ba80054540000502f0000312e00003120000026
:104bb8003430000030200000426100006420000012
:104bc800526500007175000065730000740d0000e7
:104bd8000a4300006f6e00006e65000063740000f9
:104be800696f00006e3a0000206300006c6f0000df
:104bf800736500000d0a00000d0a00003430000043
:104c0800302000004261000064200000526500006e
:104c18007175000065730000743a0000206300009d
:104c2800616e00002774000020680000616e0000bb
:104c3800646c000065200000436f00006e74000083
:104c4800656e0000742d00004c6500006e67000062
:104c5800746800000d0a0000004800005454000069
:104c6800502f0000312e00003120000034300000a9
:104c780031200000556e0000617500007468000066
:104c88006f720000697a0000656400000d0a000078
:104c980057570000572d0000417500007468000048
:104ca800656e0000746900006361000074650000af
:104cb8003a20000042610000736900006320000090
:104cc80072650000616c00006d3d0000225000001c
:104cd800726f000074650000637400006564000072
:104ce800220d00000a4300006f6e00006e65000090
:104cf80063740000696f00006e3a000020630000d2
:104d08006c6f0000736500000d0a00000d0a0000ba
:104d18003430000031200000556e0000617500003d
:104d2800746800006f720000697a00006564000012
:104d38003a2000005061000073730000776f000094
:104d4800726400002072000065710000756900003f
:104d580072650000640d00000a000000485400005d
:104d6800545000002f3100002e3100002034000084
:104d780030340000204e00006f74000020660000f0
:104d88006f7500006e6400000d0a0000436f00009c
:104d98006e6e000065630000746900006f6e0000ad
:104da8003a200000636c00006f730000650d00007e
:104db8000a0d00000a340000303400003a200000d8
:104dc800466900006c650000206e00006f740000ea
:104dd800206600006f7500006e6400000d0a000078
:104de8000048000054540000502f0000312e0000ed
:104df80031200000343100003420000052650000ea
:104e08007175000065730000742d00005552000094
:104e180049200000546f00006f2000004c6f000014
:104e28006e6700000d0a0000436f00006e6e000000
:104e380065630000746900006f6e00003a2000008e
:104e4800636c00006f730000650d00000a0d000020
:104e58000a3400003134000020520000657100005f
:104e680075650000737400002d550000524900005c
:104e7800205400006f6f0000204c00006f6e00008f
:104e8800673a000020420000756600006665000071
:104e9800722000006f76000065720000666c0000ea
:104ea8006f770000206400006574000065630000ef
:104eb80074650000640d00000a00000048540000fa
:104ec800545000002f3100002e3100002035000022
:104ed80030300000204900006e7400006572000048
:104ee8006e6100006c2000005365000072760000bf
:104ef8006572000020450000727200006f720000a9
:104f08000d0a0000436f00006e6e0000656300002c
:104f1800746900006f6e00003a200000636c0000a6
:104f28006f730000650d00000a0d00000a350000cf
:104f380030300000204900006e74000065720000e7
:104f48006e6100006c20000053650000727600005e
:104f58006572000020450000727200006f72000048
:104f68003a20000045780000706500006374000076
:104f78006564000020640000617400006120000086
:104f88006e6f0000742000007072000065730000ee
:104f9800656e0000740d00000a000000485400000f
:104fa800545000002f3100002e3100002035000041
:104fb80030310000204e00006f74000020490000ce
:104fc8006d7000006c6500006d6500006e74000077
:104fd800656400000d0a0000436f00006e6e00005b
:104fe80065630000746900006f6e00003a200000dd
:104ff800636c00006f730000650d00000a0d00006f
:105008000a35000030310000204e00006f740000a7
:10501800204900006d7000006c6500006d6500009f
:105028006e740000656400003a2000004f6e0000b6
:105038006c79000020470000455400002061000002
:105048006e640000205000004f5300005420000000
:1050580073750000707000006f72000074650000c6
:10506800640d00000a00000048540000545000007d
:105078002f3100002e3100002033000030320000b4
:10508800204600006f7500006e6400000d0a0000e5
:10509800436f00006e6e00006563000074690000d5
:1050a8006f6e00003a200000636c00006f73000010
:1050b800650d00000a4c00006f6300006174000079
:1050c800696f00006e3a000020000000485400009c
:1050d800545000002f3100002e3100002034000011
:1050e80030330000204600006f7200006269000043
:1050f80064640000656e00000d0a0000436f000044
:105108006e6e000065630000746900006f6e000039
:105118003a200000636c00006f730000650d00000a
:105128000a0d00000a340000303300002046000059
:105138006f7200006269000064640000656e000020
:105148003a200000535300004c2000005265000034
:10515800717500006972000065640000202d000070
:1051680020750000736500002048000054540000ba
:10517800505300000d0a000000000000aea500001a
:10518800aea50000d3a5000031a60000b2a600001d
:10519800f5a6000062a70000d2a7000038a800000a
:1051a8006aa80000436f00006f6b0000696500008b
:1051b8003a00000041750000746800006f7200003a
:1051c800697a000061740000696f00006e3a00009f
:1051d800004300006f6e0000746500006e740000ec
:1051e8002d4c0000656e000067740000683a0000ee
:1051f80000000000d6a80000dea80000eda800000e
:105208004745000054000000504f00005354000070
:10521800006900006e640000657800002e680000d8
:10522800746d0000000d00000a0d00000a33000034
:1052380030340000205200006564000069720000ec
:1052480065630000743a000020000000436f00000e
:105258006e740000656e0000742d00005479000023
:10526800706500003a200000004300006f6e0000e7
:10527800746500006e7400002d4500006e63000028
:105288006f640000696e0000673a00002067000044
:105298007a690000700d00000a00000043610000f8
:1052a80063680000652d0000436f00006e74000005
:1052b800726f00006c3a0000200000006e6f000062
:1052c8002d6300006163000068650000006d000048
:1052d800617800002d610000676500003d00000056
:1052e80036300000300000002c28000029000000a3
:1052f8002e000000256c00006900000070610000ad
:10530800737600000d0a0000000d00000a0000007e
:1053180053650000727600006572000020490000a5
:10532800503a0000000d00000a53000065720000aa
:105338007665000072200000706f00007274000033
:105348003a000000536500007276000065720000a4
:105358002073000065610000726300006869000046
:105368006e6700002e2e00002e000000465400003c
:10537800504300006f6e00006e650000637400000b
:105388003a200000534500005256000045520000e4
:10539800204600004f5500004e4400000d0a000052
:1053a8000032000032300000004600005450000077
:1053b800436f00006e6e000065630000743a0000e1
:1053c80020530000455200005645000052200000be
:1053d800414e00005357000045520000454400006c
:1053e8000d0a00000055000053450000522000003f
:1053f8000033000033310000005500005345000021
:10540800522000004f4b00000d0a00000050000021
:1054180041530000532000000032000033300000e8
:1054280000350000333000000050000041530000f8
:10543800535700004f520000442000004f4b00001b
:105448000d0a000000530000495a000045200000e2
:105458000035000035300000003200003133000014
:105468000046000054500000466900006c650000ca
:10547800536900007a6500003a00000053540000a8
:105488004f5200002000000041500000504500002d
:1054980020000000313500003000000032320000ea
:1054a8003600000052450000545200002000000061
:1054b8005374000072650000616d00004f700000b9
:1054c800656e00003a20000052450000545200006a
:1054d8000d0a0000005300007472000065610000ae
:1054e8006d4f0000706500006e3a00002053000008
:1054f800544f0000520d00000a00000053740000d1
:1055080072650000616d00004f700000656e00005c
:105518003a20000041500000504500000d0a0000ec
:1055280000310000323500000046000054500000f1
:105538005374000072650000616d0000577200002e
:1055480069740000653a000020740000696d00006d
:10555800656f00007574000020620000792000006b
:105568007365000072760000657200002064000018
:1055780069730000636f00006e6e000065630000d1
:10558800746900006f6e00000d0a000000460000fc
:10559800545000005374000072650000616d0000f3
:1055a8005772000069740000653a0000207400001a
:1055b800696d0000656f0000757400000d0a000039
:1055c800004600005450000053740000726500004b
:1055d800616d000052650000616400003a2000001f
:1055e800454f00004620000072650000616300001e
:1055f80068650000640d00000a00000046540000c1
:105608005053000074720000656100006d52000084
:1056180065610000643a000020740000696d0000b4
:10562800656f00007574000020620000792000009a
:105638007365000072760000657200002064000047
:1056480069730000636f00006e6e00006563000000
:10565800746900006f6e00000d0a0000004600002b
:10566800545000005374000072650000616d000022
:1056780052650000616400003a200000746900006f
:105688006d6500006f750000740d00000a000000d1
:10569800070c000011160000070c0000111600008e
:1056a800070c000011160000070c0000111600007e
:1056b800050900000e140000050900000e14000082
:1056c800050900000e140000050900000e14000072
:1056d800040b000010170000040b00001017000056
:1056e800040b000010170000040b00001017000046
:1056f800060a00000f150000060a00000f1500003a
:10570800060a00000f150000060a00000f15000029
:1057180078a400006ad7000056b70000c7e8000068
:10572800db70000020240000eece0000bdc10000a8
:10573800af0f00007cf500002ac600008747000074
:105748001346000030a800000195000046fd000047
:10575800d898000080690000aff70000448b000073
:10576800b15b0000ffff0000bed700005c890000ad
:1057780022110000906b00009371000098fd00005a
:105788008e43000079a6000021080000b4490000fb
:10579800622500001ef6000040b3000040c0000073
:1057a800515a00005e260000aac70000b6e90000b2
:1057b8005d1000002fd600005314000044020000c2
:1057c80081e60000a1d80000c8fb0000d3e7000074
:1057d800e6cd0000e1210000d607000037c3000035
:1057e800870d0000d5f40000ed1400005a450000b4
:1057f80005e90000e3a90000f8a30000effc0000a1
:10580800d90200006f6700008a4c00002a8d000052
:1058180042390000faff000081f60000718700009d
:10582800226100009d6d00000c380000e5fd0000bd
:1058380044ea0000bea40000a9cf0000de4b00002f
:10584800604b0000bbf6000070bc0000bfbe00004b
:10585800c67e00009b280000fa270000a1ea00008d
:1058680085300000efd40000051d0000880400000a
:1058780039d00000d4d90000e5990000dbe600002b
:10588800f87c0000a21f000065560000acc40000b0
:105898004422000029f4000097ff00002a4300007a
:1058a800a723000094ab000039a0000093fc00007f
:1058b800c35900005b65000092cc00000c8f00000b
:1058c8007df40000efff0000d15d0000848500003a
:1058d8004f7e0000a86f0000e0e600002cfe0000ec
:1058e8001443000001a30000a1110000084e0000ad
:1058f800827e000053f7000035f200003abd000038
:10590800bbd20000d72a000091d3000086eb00002c
:1059180000800000000000000000000000000000ff
:10592800beba0000adde0000112b00000000000030
:105938005265000073650000737400002042000087
:1059480075740000746f00006e2000005075000030
:1059580073680000656400000d0a00000041000043
:10596800757400006f6d00006174000069630000c9
:105978002053000065740000757000000d0a0000d7
:10598800006900006e66000072610000004f0000b0
:105998006e00000062690000672000007469000062
:1059a8007461000079730000000000004563000086
:1059b800686f000020690000732000004c69000037
:1059c80073740000656e0000696e0000672e0000a9
:1059d8002e2e00000d0a0000004500006e76000023
:1059e800656c00006f7000006520000053750000b2
:1059f800727000006173000073650000640d0000a0
:105a08000a000000446f00006e650000205300008b
:105a1800616d0000706c0000696e0000670d000089
:105a28000a0000005443000050200000436c0000ae
:105a3800696500006e740000204f0000706500006a
:105a48006e0d00000a0000003639000036390000eb
:105a580000310000393200002e31000036380000d5
:105a68002e3800002e3100003032000000540000b3
:105a780043500000206300006f6e00006e65000058
:105a880063740000696e0000670d00000a000000e2
